:080000002EC0FECFFDCFFCCFA6
:10000800D2C2FACFF9CFF8CF7CC21CC2F5CFF4CF59
:10001800F3CFF2CFF1CFF0CFEFCFEECFEDCF102768
:10002800E80364000A00010000100001100001004C
:1000380000007374617274200A0D0074313D2569E3
:10004800202000706F77313D2569200A0D000100DE
:10005800020038000000F894EE27ECBBF1E0FBBF8B
:10006800EBBFE5BF8DE0A2E0BB27ED938A95E9F7EA
:1000780080E094E0A0E6ED930197E9F7E6E5F0E08B
:1000880085919591009761F0A591B591059015908E
:10009800BF01F00105900D920197E1F7FB01F0CF48
:1000A800EFE5EDBFE4E0EEBFC0E6D1E081C28FD45A
:1000B80091D4129692D4FED68DD494D498D4A88193
:1000C800B9811696ED93FC93EC81FD81A881B981E5
:1000D8001896ED93FC93EA81FB81A881B9811A9661
:1000E800ED93FC9377D41696DBD63196AFEFBFE746
:1000F80087D6A881B9811C96ED93FC936BD418968A
:10010800CFD6319677D4AFEFBFEF8FEF9FE3A2D66C
:10011800A881B9811E96CED62896089558D42C97D2
:10012800E1D6AC89BD89EE89FF89EA1BFB0B8F01FB
:1001380063D4E017F1071CF42FEF3FE70EC05CD43F
:10014800FCD50E171F071CF421E030E806C059D46F
:10015800A681B781F80137D69F0153D4A281B38114
:1001680084819581F80146D4DED5EE83FF836887C4
:1001780079874AD44ED4ACD63CF4EFEFFFEF6FEF5B
:100188007FE34CD450D420C03FD4DBD542D4A5D68D
:1001980044F4E1E0F0E060E070EC40D4D2D543D420
:1001A80013C0EE81FF81688579853DD42AD4008407
:1001B8001184AA89BB89129677D6D001D7D508D6DB
:1001C800EE87FF87688B798B1CD402841384AA89F5
:1001D800BB8966D6AC89BD89EA1BFB0BD001F3D578
:1001E800AF01EC89FD89AA89BB89ED93FC93EE8563
:1001F800FF8568897989D901B9D59AD5FA01FAD3E1
:1002080097D5E0E8F0E060E070E024D6EA87FB8765
:100218006C877D870DD4A030E0E8BE07E0E08E074C
:10022800E0E09E072CF0EFEFFFE760E070E00DC024
:10023800FFD3A130E0E8BE07EFEF8E07EFEF9E0790
:1002480044F4E1E0F0E86FEF7FEFEA87FB876C8723
:100258007D87EA85FB854DD668960895E9E1F0E04B
:1002680060E070E0FA93EA93B8D3E7D3B6D3E5D366
:10027800A6E7B1E01CDF089539D600E010E0E0D32E
:100288008AEC93E00197F1F7E4D38DEA8A95F1F7C8
:10029800E0E0969BE1E0E2D3E0E0979BE1E0DED38B
:1002A800E0E0C09BE1E0DAD3E0E0C19BE1E0D6D337
:1002B80088E493E00197F1F7F80167C0AA931A93CD
:1002C80010E010E01830F8F4E981E17061F0B8D37B
:1002D80088E28A95F1F7969A979AC09AC19A85E822
:1002E8008A95F1F704C0ACD38DEA8A95F1F78E9818
:1002F8008F98B898B9988DE08A95F1F7E981E695D5
:10030800E9831F5FDFCF18814CC1F0D510E000E012
:10031800E0E0E0936E01E0936F01E0937001E093F9
:10032800710110E0183068F58BD383E08A95F1F7F6
:1003380090D385E28A95F1F7869B06C093D3A09166
:100348006E01EA2BE0936E01879B06C08BD3A091C8
:100358006F01EA2BE0936F01B09B06C083D3A09195
:100368007001EA2BE0937001B19B06C07BD3A0918A
:100378007101EA2BE093710188E78A95F1F71F5F15
:10038800D1CF8DE08A95F1F7E02F09911991089561
:100398006DD3A4E408C06AD3AEE490DFA2E38EDF95
:1003A800A0E08CDFAFE18ADF089526979BD55ED366
:1003B800AEEB84DFAADFE0916E01EE83E0916F017E
:1003C800EF83E0917001E887E0917101E9879DDF93
:1003D800B0916E01A0E0EE814CD3E0936601F093FA
:1003E8006701B0916F01A0E0EF8143D3E09368010A
:1003F800F0936901B0917001A0E0E8853AD3E093E9
:100408006A01F0936B01B0917101A0E0E98531D3E5
:10041800E0936C01F0936D016CD52C960895EEEC89
:10042800FFEF2BD3849903C0E0E2F1E026D3839950
:1004380003C0E0E6F1E021D3859903C0E0E8F1E0EC
:100448001CD30895FA92AA93EA93EFB7EA93FF248C
:10045800B59B03C0E0E0E0936001B49B03C0E0E01B
:10046800E0936101B39B03C0E0E0E0936201ECE933
:10047800E2BFA0916001A93628F4E0916001EF5F26
:10048800E0936001A0916101A93628F4E09161012F
:10049800EF5FE0936101A0916201A93628F4E09131
:1004A8006201EF5FE0936201E0916301A091600156
:1004B800EA1711F46894F0F8E0916401A0916101E1
:1004C800EA1711F46894F1F8E0916501A0916201CE
:1004D800EA1711F46894F2F8F0FC02C0AA9801C077
:1004E800AA9AF1FC02C0A99801C0A99AF2FC02C01C
:1004F800A89801C0A89AE991EFBFE991A991F9904C
:1005080018950A921A92FA926A937A938A939A930E
:10051800AA93BA93EA93FA93EFB7EA93EFECEDBD97
:10052800ECE2ECBDF89441DF33DF79DF689420F822
:10053800E0E0E0936001E0936101E0936201789468
:10054800E991EFBFF991E991B991A99199918991AF
:1005580079916991F99019900990189593D20CF0B6
:1005680097D238D2169714F098D201C0EEE6E093ED
:10057800630117C087D20CF08BD22CD2169714F0D7
:100588008CD201C0EEE6E09364010BC07BD20CF084
:100598007FD220D2169714F080D201C0EEE6E09305
:1005A800650122960895EA93E6E0E4BDE99118957D
:1005B8002297E0E0E883E983E7BBE8BBE7E0E4BB38
:1005C800E0E0E5BBE1BBE2BBE2E0E3BFE0E0E2BFC5
:1005D800EFBDE3E0EEBDE0E0EDBDECBDE7BDE6BD9F
:1005E800EBBDEABDE9BDE8BDE2BDE3E0E5BDE6E09F
:1005F800E4BDE0E0E3BDE5E4E9BFE0E0E5BFEBB979
:10060800E8E0EAB9E6E8E0BDE0E0E0BDE3E3E9B947
:10061800E0E8E8B9E0E0E0BFE6B9EDB9E6BFBBDE87
:10062800A0E0B0E09BDFA0E0B0E0A4DFA0E0B0E095
:10063800ADDF789413DEEAE3F0E0FFD180E092D1F9
:10064800229620FE6BC0E0916C01F0916D01A091A3
:100658007401B0917501EA17FB07ACF422D2A03BF4
:10066800E4E0BE0714F422D209F40AC0E0E2F3E0A1
:10067800E4D121D2E2D1A6E7B1E050DD8F0102C07A
:1006880000E010E006C000E010E020E030E040E0CC
:1006980050E0D80163DFD9016DDFDA0177DF01D2DD
:1006A8000FD214F403D209F40FD216D209D21CF4D3
:1006B80013D217D209F408D218D202D21CF415D2D8
:1006C80010D209F401D216D2FBD11CF413D209D2EC
:1006D80009F4FAD1F0D145D3A6D2A0E0B0E080E881
:1006E8009DE3CFD2DE0168D2ED93FC93E3E4F0E022
:1006F800A4D1EA81FB817ED102D2E881F981EE0F93
:10070800FF1FDF012BDFEBE4F0E097D1E0916301FD
:10071800FF2766277727F3D1E89420F892CFFFCFF9
:10072800AA935D9BFECFE881ECB9219608954FD13D
:10073800AA81F6DF4FD1ED91FD913196FE93EE93AC
:100748002396089544D12697CDD310E0AC85BD8576
:1007580049D157D13196EA8BFB8B3197E4912E2FF3
:10076800E03009F4F9C0E12FE03031F4253211F41A
:1007780011E001C0C9D1EFC0E130A1F4253211F474
:10078800C3D1E8C012E040E000E02D3211F401E0EE
:10079800E2C02B3211F44BE2DEC0203211F440E209
:1007A800DAC002C0E23039F450E013E0203311F42B
:1007B8000068D1C003C0E33009F0CDC0203310F089
:1007C8002A3308F007C0AAE05A9F502DE22FE053C1
:1007D8005E0FC1C0E22FE33639F49DD19FD19BD182
:1007E800A481AA939FD1B6C0E33729F4A1D1A2D19D
:1007F800D7D01E2F07C0E03749F49AD19BD1DBD060
:100808001E2F086002600F7730E02DC0E43611F02B
:10081800E93611F4046002C0E53729F4E6E2F0E0B5
:1008280092D115E00BC0E83511F4086003C0E83731
:1008380009F090C0E0E3F0E086D114E002FF11C0B7
:1008480077D184D1AB85AA2332F4EA85FB8575D2AA
:10085800EA87FB874DE2403011F01F5F01C00B7F34
:1008680002C066D173D100FD10C0151770F407FFE0
:1008780008C002FF04C00B7F242F115001C020E3E1
:1008880001C020E241D15150F0CF312F01FF14C0F7
:10089800303089F003FF04C0AAD0259154D105C097
:1008A800AE81BF812D91AE83BF832ED1503009F028
:1008B80051503150EDCF45C020E399D000D3E8879F
:1008C800F98795D032963FD1E885F985AA85BB8509
:1008D800AE17BF0750F02F5FA885B985EA85FB855D
:1008E800EA1BFB0BEA87FB87EFCF2A3328F003FFCD
:1008F80002C0295F01C0295D04FD19C0213320F41D
:10090800A885B985119709F409C0531710F000FF9D
:1009180001C011C020E207FF0AC020E3006102FF06
:1009280006C00B7F4A93FED0503009F05150ECD0EE
:10093800503009F051503150A885B985129708F008
:10094800BBCF00FF07C0503029F05150E0E2EA93D6
:10095800E9D0F9CF10E0FDCEAC85BD85A1D2C9D2D2
:1009680064960895FF92F82E2697C0D2DE01149659
:10097800D6D18D01E0E0EC83ED83EE83EF83DE01D9
:100988001896CDD18DD259D01A930A93EBE9F3E09A
:1009980054D0DE011896D6DEB0D22896FF9008957E
:1009A80016D0A991B991EE27FF276D91662311F012
:1009B8003196FBCF08950BD0AA27BB27E991F9916F
:1009C8000590002011F01196FBCFFD010895BA9310
:1009D800AA930895A881B9810895E0E0F0E060E065
:1009E80070E00895E0E0F0E0ED93FC930895EE8167
:1009F800FF810895B6D10895AA89BB891C9650D263
:100A08000895EA89FB890895AA89BB891E964CD264
:100A18000895AE81BF81888599850895EE87FF87FF
:100A2800688B798BF1CFAA89BB89129643D2089536
:100A3800AA85BB858C859D850895FA93EA930895C8
:100A48008E9A8F9AB89AB99A96989798C098C1989A
:100A580008958E988F98B898B9980895F0E00E0F79
:100A68001F1F0895E12FA1E074D1089505DCACECB7
:100A780025CCF0E0EA2BFB2B0895E0937401F0936A
:100A880075010895A4DFA6DFA436E0E0BE07089547
:100A9800E3E6F0E0E883F9830895A881E4E6EA1B39
:100AA8000895A0916601B09167010895FADFAF3FFC
:100AB800EFEFBE070895E0916601F0916701089590
:100AC800A13BE4E0BE070895A2E7B1E0ED91FD91F6
:100AD8003196FE93EE930895A0916801B091690153
:100AE8000895AF3FEFEFBE070895A0916A01B09156
:100AF8006B010895A0916C01B0916D010895E3D147
:100B080084E030DF269608952A93AD85BE85EF856B
:100B1800F88909950895E889F98908953497E88B43
:100B2800F98B0895AD85BE85EF85F88909950895F7
:100B3800F2DFF4CFA889B9891496B2D1EE83FF8386
:100B4800AE81BF810895EE83FF830895A889B9898E
:100B58001496A6D1EA87FB870895552342F45038A6
:100B680011F4E0FF04C03196691F791F6BF050E85B
:100B7800572711F45F9373C05F3F31F0660F000C85
:100B880057956795752F08955F9300200AF073C0F5
:100B98006CC050E8192E1522880F991F9527550FFC
:100BA800879550E8072E0522660F771F7527550F82
:100BB80067950895689401C0E8945F93F2DF7038F0
:100BC80018F07F3F08F44BC056E1571BAAF4519523
:100BD80058300EF4593030F0EFEFFFEF6FEF7FE74A
:100BE80077F91AC077275523B9F0EE0FFF1F661F54
:100BF800771F5A95D1F710C07727583028F0EF2F74
:100C0800F62F672F5850F9CF552331F07695679511
:100C1800F795E7955A95D1F700200AF492D05F919D
:100C28000895689401C0E894309760407040B1F02E
:100C3800002426F0772312F4009483D0172E7EE147
:100C4800112032F07A95EE0FFF1F661F111CF9CFA5
:100C5800EF2FF62F612D5F938ADF5F910895EE27BE
:100C6800FF27662777275F910895EFEFFFEF6FE77C
:100C78007FEF5F910895EFEFFFEF6FE77FE75F91F9
:100C880008955F9386DF703851F3903841F301245B
:100C98000894791F23F41CF300203AF3ECCF0F9249
:100CA8001F932F933F934F93112722279927689FCC
:100CB800A0018F9F302D410D591F6B9F300D411D95
:100CC800591F8E9F27D0BF9F25D06A9F23D0BE9FD4
:100CD8001DD0AF9F1BD0AE9F110D291F391F491F73
:100CE800591FE32FF42F652F522F4F913F912F91CA
:100CF8001F910F9066232AF0550FEE1FFF1F661FE6
:100D080002C073954BF229DF5F910895100D211DE4
:100D1800391F02C0200D311D491F591F0895002495
:100D2800AF0DB01D0895EA0FFB1F681F791F0895C6
:100D3800AE0FBF1F861F971F0895F195E195F040EC
:100D48000895F09560957095E195FF4F6F4F7F4F2F
:100D58000895EE230E2EEA2F19F0EE0F0A94E9F704
:100D680008956F2F660F660B762F08958B2F880FC7
:100D7800880B982F0895FA9FF02DEB9FF00DEA9FAE
:100D8800E02DF10D08957A9F702D6B9F700DF89FDF
:100D9800700DE99F700D6A9F602D710DFB9F600DAE
:100DA800711DE89F600D711D8827FA9FF02D610D58
:100DB800781FEB9FF00D611D781FEA9FE02DF10D64
:100DC800681F781F08954BD0D6DF0EF4B6DF08955C
:100DD80054D0D9DF0EF4B5DF08950024112490E132
:100DE800AA0FBB1F001C111C0E1A1F0A18F40E0EA6
:100DF8001F1E01C0A1609A9599F7FD01D0010895C1
:100E08002ED0EBDF0EF499DF08953F934F935F9355
:100E1800002411244427552730E2AA0FBB1F881F3E
:100E2800991F001C111C441F551F0E1A1F0A460B40
:100E3800570B28F40E0E1F1E461F571F01C0A16036
:100E48003A9559F7FD01BC01D001CA015F914F9154
:100E58003F91089512D0D9DF0EF473DF0895E89416
:100E6800F7FF02C06ADF6894B7FF06C0A095B09587
:100E7800119600F8039400FA0895E89477FF02C0E9
:100E880060DF689497FF0BC00024A095B09580950B
:100E980090951196801D901D00F8039400FA08950E
:100EA800ED91FC9111970895ED91FD916D917C91D3
:100EB80013970895ED93FD936D937C930895059092
:100EC800F491E02D08957A936A93FA93EA9308953A
:100ED800EA17FB07680779070895AE17BF07860763
:100EE800970708955A934A933A932A931A930A9321
:100EF80008955D814C813B812A811981088108957B
:00000001FF
