:0E0000000C9458000C9400000C9400000C941A
:10000E008E010C9400000C9400000C9400000C94D3
:10001E0000000C9400000C9400000C9400000C9452
:10002E0000000C9400000C94F0010C9400000C9451
:10003E0000000C94A0010C9400000C9400000C9491
:10004E0000000C9400000C9400000C9400000C9422
:10005E0000000C9400000C9400001027E8036400CC
:10006E000A000100001000011000010074656D709F
:10007E00313D256920200074656D70323D25692063
:10008E00200074656D70333D256920200074656D08
:10009E0070343D2569200A0D007374617274200A54
:1000AE000D00F894EE27EFBBF1E0F5BFE5BF8DE054
:1000BE00A2E0BB27ED938A95E9F780E098E0A0E0F7
:1000CE00B1E0ED930197E9F7E0E0EEBBEFEFEDBFA6
:1000DE00E8E0EEBFC0E0D3E00C940F021A930A934F
:1000EE0000E010E00E9410048AEC93E00197F1F713
:1000FE0056985798209821988DEA8A95F1F7E0E066
:10010E005E9BE1E0F0E00E0F1F1FE0E05F9BE1E081
:10011E00F0E00E0F1F1FE0E0289BE1E0F0E00E0F75
:10012E001F1FE0E0299BE1E0F0E00E0F1F1F88E4A7
:10013E0093E00197F1F7F801099119910895AA93A7
:10014E001A9310E0F89410E0183008F5E981E17088
:10015E0069F00E94100488E28A95F1F75E9A5F9A20
:10016E00289A299A85E88A95F1F705C00E9410040D
:10017E008DEA8A95F1F756985798209821988DE038
:10018E008A95F1F7E981E695E9831F5FDDCF7894D3
:10019E00188122960895AA931A930A9310E000E00C
:1001AE00F89410E0183088F50E94100483E08A95C8
:1001BE00F1F7569857982098219885E28A95F1F78D
:1001CE004E9B03C0AA81A13009F002C00E941904FF
:1001DE004F9B03C0AA81A23009F002C00E941904ED
:1001EE00189B03C0AA81A33009F002C00E94190413
:1001FE00199B03C0AA81A43009F002C00E94190401
:10020E0088E78A95F1F71F5FCDCF8DE08A95F1F7DC
:10021E007894E02F1981088188C160DFE430A0E076
:10022E00FA0721F4ACEC8BDFA4E489DF08950E9479
:10023E001F04AEE484DFA2E382DFA0E080DFAFE143
:10024E007EDF089522971A930A9300E010E00E9431
:10025E001F04AEEB74DFA1E09EDFEA83A1E00E94F3
:10026E002404A6E0B3E00E943B04AEEB68DFA2E0FC
:10027E0092DFEA83A2E00E942404A8E0B3E00E9489
:10028E003B04AEEB5CDFA3E086DFEA83A3E00E94D3
:10029E002404AAE0B3E00E943B04AEEB50DFA4E0DE
:1002AE007ADFEA83A4E00E942404ACE0B3E00E946B
:1002BE00A404ED93FC93EAE7F0E0FA93EA93E0915D
:1002CE000603F09107030E944004E5E8F0E0FA937C
:1002DE00EA93E0910803F09109030E944004E0E9DB
:1002EE00F0E0FA93EA93E0910A03F0910B030E9477
:1002FE004004EBE9F0E0FA93EA93E0910C03F091FD
:10030E000D030E9440041981088124960895EA93F2
:10031E001D9B03C0E0E0E09300031C9B03C0E0E0E4
:10032E00E09301031B9B03C0E0E0E0930203E9911D
:10033E001895FA92AA93EA93EFB7EA93FF24ECE9A1
:10034E00E6BDA0910003A43628F4E0910003EF5F10
:10035E00E0930003A0910103A43628F4E091010379
:10036E00EF5FE0930103A0910203A43628F4E0911D
:10037E000203EF5FE0930203E0910303A0910003F9
:10038E00EA1711F46894F0F8E0910403A0910103C8
:10039E00EA1711F46894F1F8E0910503A0910203B5
:1003AE00EA1711F46894F2F8F0FC02C0429801C00A
:1003BE00429AF1FC02C0419801C0419AF2FC02C07F
:1003CE00409801C0409AE991EFBFE991A991F99047
:1003DE0018950A921A92FA926A937A938A939A933A
:1003EE00AA93BA93EA93FA93EFB7EA930E94490459
:1003FE0029DF13DFE991EFBFF991E991B991A99145
:10040E009991899179916991F9901990099018951E
:10041E00E0E8E0936100E0E0E0936100E4B9E5B963
:10042E00E7E0E7B9E0E0E8B9EAB9EBB9E4BDE2E04C
:10043E00E5BDECE9E6BDE0E0E7BDE8BDE093800098
:10044E00E3E0E09381000E944904E0E0E09387003E
:10045E00E0938600E0938900E0938800E0938B00A0
:10046E00E0938A00E093B600E093B000E093B10011
:10047E00E093B200E093B300E093B400E1E0E093C8
:10048E006E00E0936F00E0E0E0937000E09369008F
:10049E00EDBBE1E0E0936800E8E3E0936B00E1E0A0
:1004AE00EBBBE0E0E093C000E8E0E093C100E6E0E3
:1004BE00E093C200E0E0E093C500E3E3E093C40004
:1004CE00E0E8E0BFE0E0E0937B00E0937F00E093A4
:1004DE007A00ECBDE093BC00AADE7894E4E1E093F0
:1004EE000303E2E3E0930403EAE5E0930503E7EA9E
:1004FE00F0E0FA93EA9380E04ED12296FFCFFFCF41
:10050E00AA93E091C000E072E1F3E881E093C600A7
:10051E0021960895BA93AA93AA81F2DFA881B98190
:10052E00ED91FD913196FE93EE9323960895BA9335
:10053E00AA9326970E94810510E0AC85BD85E0E068
:10054E00F0E0ED93FC93EA89FB893196EA8BFB8B05
:10055E003197E4912E2FE03009F415C1E12FE030F0
:10056E0039F4253211F411E002C00E9450040AC180
:10057E00E130A9F4253219F40E94500402C112E0B0
:10058E0040E000E02D3211F401E0FCC02B3211F4FA
:10059E004BE2F8C0203211F440E2F4C002C0E23067
:1005AE0039F450E013E0203311F40068EBC003C0BF
:1005BE00E33009F0E7C0203310F02A3308F007C00B
:1005CE00AAE05A9F502DE22FE0535E0FDBC0E22FC0
:1005DE00E33649F40E945704E889F989A481AA9365
:1005EE000E945D04CEC0E33741F40E9457040E947E
:1005FE0063040E94F7031E2F0AC0E03761F40E94C5
:10060E0057040E9463040E9403041E2F08600260B8
:10061E000F7730E034C0E43611F0E93611F404609F
:10062E0002C0E53731F4E8E6F0E0EE83FF8315E033
:10063E000CC0E83511F4086003C0E83709F0A1C01A
:10064E00E2E7F0E0EE83FF8314E002FF14C00E94A5
:10065E0057040E946D04AB85AA233AF4EA85FB8504
:10066E000E945B05EA87FB874DE2403011F01F5F69
:10067E0001C00B7F04C00E9457040E946D0400FD50
:10068E0011C0151778F407FF08C002FF04C00B7FD6
:10069E00242F115001C020E301C020E20E9450041B
:1006AE005150EFCF312F01FF17C03030A1F003FFB3
:1006BE0006C0EE81FF812591EE83FF8305C0AE81DA
:1006CE00BF812D91AE83BF830E945004503009F03C
:1006DE0051503150EACF4BC020E3EE81FF810E9492
:1006EE007805E887F987EE81FF813296EE83FF83E6
:1006FE00E885F985AA85BB85AE17BF0750F02F5F39
:10070E00A885B985EA85FB85EA1BFB0BEA87FB8783
:10071E00EFCF2A3328F003FF02C0295F01C0295D05
:10072E0004FD1AC0213320F4A885B985119709F468
:10073E0009C0531710F000FF01C013C020E207FFDD
:10074E000BC020E3006102FF07C00B7F4A930E949B
:10075E005D04503009F051500E945004503009F0A1
:10076E0051503150A885B985129708F0B5CF00FFCA
:10077E0008C0503031F05150E0E2EA930E945D041F
:10078E00F8CF10E0E0CEAC85BD850E9474050E94C6
:10079E00880564960895FF92F82E26971A930A9369
:1007AE00DE0114960E9457058D01E0E0EC83ED8387
:1007BE00EE83EF83DE0118960E9457050E947405A2
:1007CE00FA93EA931A930A93E1E9F2E0FA93EA9321
:1007DE00DE011896ACDE198108812896FF900895E7
:1007EE00BA93AA93A991B991EE27FF276D9166232B
:1007FE0011F03196FBCF0895BA93AA93AA27BB277F
:10080E00E991F9910590002011F01196FBCFFD01B1
:10081E000895569A579A209A219A5E985F9828982A
:10082E0029980895E12FA1E00E9467050E2B0895E7
:10083E000E947500ACEC0C94A6000E94D200EB83D3
:10084E000B811127102F0027EA81F0E00E2B1F2BB2
:10085E00F8010E946F050E94DB04A0E0B0E080E882
:10086E009DE30E94090508950E94A404ED93FC9354
:10087E00DFCF0E946F050E947C0584E00E94D203A8
:10088E0026960895EBE0E0938500ECEDE09384006E
:10089E0008952A93AD85BE85EF85F889099508954B
:1008AE00E889F9893497E88BF98B0895AD85BE8573
:1008BE00EF85F88909950895A889B98914960E943B
:1008CE007405EE83FF83AE81BF810895A889B9892F
:1008DE0014960E947405EA87FB870895552342F407
:1008EE00503811F4E0FF04C03196691F791F6BF088
:1008FE0050E8572711F45F9373C05F3F31F0660FD6
:10090E00000C57956795752F08955F9300200AF098
:10091E0073C06CC050E8192E1522880F991F9527A9
:10092E00550F879550E8072E0522660F771F7527FE
:10093E00550F67950895689401C0E8945F93F2DFB0
:10094E00703818F07F3F08F44BC056E1571BAAF4DD
:10095E00519558300EF4593030F0EFEFFFEF6FEF46
:10096E007FE777F91AC077275523B9F0EE0FFF1FEF
:10097E00661F771F5A95D1F710C07727583028F089
:10098E00EF2FF62F672F5850F9CF552331F076956C
:10099E006795F795E7955A95D1F700200AF488D018
:1009AE005F910895689401C0E8943097604070405C
:1009BE00B1F0002426F0772312F4009479D0172E8C
:1009CE007EE1112032F07A95EE0FFF1F661F111C8B
:1009DE00F9CFEF2FF62F612D5F938ADF5F91089588
:1009EE00EE27FF27662777275F910895EFEFFFEF3A
:1009FE006FE77FEF5F910895EFEFFFEF6FE77FE710
:100A0E005F9108955F9386DF703851F3903841F30C
:100A1E0001240894791F23F41CF300203AF3ECCF41
:100A2E000F921F932F933F934F93112722279927AE
:100A3E00689FA0018F9F302D410D591F6B9F300D68
:100A4E00411D591F8E9F27D0BF9F25D06A9F23D04F
:100A5E00BE9F1DD0AF9F1BD0AE9F110D291F391FFA
:100A6E00491F591FE32FF42F652F522F4F913F919E
:100A7E002F911F910F9066232AF0550FEE1FFF1F27
:100A8E00661F02C073954BF229DF5F910895100D1A
:100A9E00211D391F02C0200D311D491F591F0895F8
:100AAE000024AF0DB01D0895F195E195F040089525
:100ABE00F09560957095E195FF4F6F4F7F4F0895BC
:100ACE00EE230E2EEA2F19F0EE0F0A94E9F7089591
:100ADE006F2F660F660B762F0895ED91FC9111978F
:100AEE0008950590F491E02D08957A936A93FA9300
:100AFE00EA9308955A934A933A932A931A930A9330
:100B0E0008955D814C813B812A8119810881089568
:00000001FF
