:060000000C9476000C9444
:1000060000000C9400000C94DF020C9400000C9489
:1000160000000C9400000C9400000C9400000C945A
:1000260000000C9400000C9400000C9400000C944A
:1000360041030C9400000C9400000C94F1020C9403
:1000460000000C9400000C9400000C9400000C942A
:1000560000000C9400000C9400000C9400000C941A
:1000660000001027E80364000A00010000100001E8
:100076001000010074656D70313D25692020007403
:10008600656D70323D256920200074656D70333DC5
:10009600256920200074656D70343D2569200A0DA0
:1000A600007374617274200A0D007265666572656C
:1000B6006E636556616C75653D25692020006D652A
:1000C60061737572656D656E7456616C75653D25F7
:1000D60069202000696E70757456616C75653D25E2
:1000E60069200A0D0000F894EE27EFBBF1E0F5BF9A
:1000F600E5BF8DE0A2E0BB27ED938A95E9F780E0A6
:1001060098E0A0E0B1E0ED930197E9F7E0E0EEBBFF
:10011600EFEFEDBFE8E0EEBFC0E0D3E00C94600384
:10012600BA93AA93A881B9811296E0E0F0E060E064
:1001360070E00E94B507A881B981ED93FC93EE812A
:10014600FF81A881B9811696ED93FC93EC81FD8120
:10015600A881B9811896ED93FC93EA81FB81A88169
:10016600B9811A96ED93FC93A881B98116960E94DF
:10017600AB073196AFEFBFE70E945B07A881B98155
:100186001C96ED93FC93A881B98118960E94AB0743
:1001960031960E940C07AFEFBFEF8FEF9FE30E94EF
:1001A6008507A881B9811E960E94B50728960895ED
:1001B600BA93AA932C970E94CD07AC89BD89EE8984
:1001C600FF89EA1BFB0B8F01AA89BB891C960E943B
:1001D600AB07E017F1071CF42FEF3FE715C0AA891C
:1001E600BB891C960E94AB070E94F8060E171F07D4
:1001F6001CF421E030E808C0EA89FB89A681B781B2
:10020600F8010E943E079F01EA89FB89A281B3811A
:1002160084819581F8010E940C070E94EE06EE8308
:10022600FF83688779870E949205AE81BF818885A2
:1002360099850E94C3074CF4EFEFFFEF6FEF7FE362
:100246000E9498050E949D052EC00E9492050E945C
:10025600FC06AE81BF81888599850E94C8075CF43B
:10026600E1E0F0E060E070EC0E9498050E94FC0678
:100276000E949D0518C0EE81FF81688579850E94E0
:100286009D05EA89FB8900841184AA89BB89129697
:100296000E94AF07D0010E9411070E944307EE8714
:1002A600FF87688B798BEA89FB8902841384AA8984
:1002B600BB890E94AB07AC89BD89EA1BFB0BD00149
:1002C6000E943E07AF01EC89FD89AA89BB89ED939F
:1002D600FC93EE85FF8568897989D9010E9411070B
:1002E6000E94F306FA010E940C070E94F306E0E85A
:1002F600F0E060E070E00E948507EA87FB876C8784
:100306007D87AA85BB858C859D85A030E0E8BE07E4
:10031600E0E08E07E0E09E072CF0EFEFFFE760E0FD
:1003260070E010C0AA85BB858C859D85A130E0E86C
:10033600BE07EFEF8E07EFEF9E0744F4E1E0F0E82B
:100346006FEF7FEFEA87FB876C877D87EA85FB8502
:100356000E94D40768960895E0E8F0E060E070E057
:10036600FA93EA93E0E4F0E060E070E0FA93EA934F
:10037600E6E2F0E060E070E0FA93EA93AEE0B3E024
:10038600CFDE08951A930A9300E010E00E94A305B9
:100396008AEC93E00197F1F75698579820982198A0
:1003A6008DEA8A95F1F7E0E05E9BE1E0F0E00E0F62
:1003B6001F1FE0E05F9BE1E0F0E00E0F1F1FE0E093
:1003C600289BE1E0F0E00E0F1F1FE0E0299BE1E033
:1003D600F0E00E0F1F1F88E493E00197F1F7F80194
:1003E600099119910895AA931A9310E0F89410E0D0
:1003F600183008F5E981E17069F00E94A30588E2EA
:100406008A95F1F75E9A5F9A289A299A85E88A95DD
:10041600F1F705C00E94A3058DEA8A95F1F7569873
:100426005798209821988DE08A95F1F7E981E6950D
:10043600E9831F5FDDCF7894188122960895AA93E9
:100446001A930A9310E000E0F89410E0183088F54B
:100456000E94A30583E08A95F1F75698579820984D
:10046600219885E28A95F1F74E9B03C0AA81A130B7
:1004760009F002C00E94AC054F9B03C0AA81A230BE
:1004860009F002C00E94AC05189B03C0AA81A330E4
:1004960009F002C00E94AC05199B03C0AA81A430D2
:1004A60009F002C00E94AC0588E78A95F1F71F5F44
:1004B600CDCF8DE08A95F1F77894E02F19810881E8
:1004C600BAC160DFE430A0E0FA0721F4ACEC8BDFC0
:1004D600A4E489DF08950E94B205AEE484DFA2E3B6
:1004E60082DFA0E080DFAFE17EDF089522971A93D6
:1004F6000A9300E010E00E94B205AEEB74DFA1E0C3
:100506009EDFEA83A1E00E94B705A6E0B3E00E9461
:10051600CE05AEEB68DFA2E092DFEA83A2E00E949E
:10052600B705A8E0B3E00E94CE05AEEB5CDFA3E022
:1005360086DFEA83A3E00E94B705AAE0B3E00E9443
:10054600CE05AEEB50DFA4E07ADFEA83A4E00E949A
:10055600B705ACE0B3E00E943706ED93FC93EAE7FB
:10056600F0E0FA93EA93E0910603F09107030E9404
:10057600D305E5E8F0E0FA93EA93E0910803F091F9
:1005860009030E94D305E0E9F0E0FA93EA93E091CB
:100596000A03F0910B030E94D305EBE9F0E0FA930E
:1005A600EA93E0910C03F0910D030E94D305F09AB3
:1005B6001981088124960895EA931D9B03C0E0E003
:1005C600E09300031C9B03C0E0E0E09301031B9B48
:1005D60003C0E0E0E0930203E9911895FA92AA932A
:1005E600EA93EFB7EA93FF24ECE9E6BDA091000396
:1005F600A43628F4E0910003EF5FE0930003A09196
:100606000103A43628F4E0910103EF5FE0930103B0
:10061600A0910203A43628F4E0910203EF5FE09371
:100626000203E0910303A0910003EA1711F4689412
:10063600F0F8E0910403A0910103EA1711F468941D
:10064600F1F8E0910503A0910203EA1711F468940A
:10065600F2F8F0FC02C0429801C0429AF1FC02C0D6
:10066600419801C0419AF2FC02C0409801C0409AEC
:10067600E991EFBFE991A991F99018950A921A921A
:10068600FA926A937A938A939A93AA93BA93EA937D
:10069600FA93EFB7EA930E94DC0528DF12DFE991AF
:1006A600EFBFF991E991B991A991999189917991C0
:1006B6006991F990199009901895E0E8E093610026
:1006C600E0E0E0936100E4B9E5B9E7E0E7B9E0E02E
:1006D600E8B9EAB9EBB9E4BDE2E0E5BDECE9E6BDAF
:1006E600E0E0E7BDE8BDE0938000E3E0E093810051
:1006F6000E94DC05E0E0E0938700E0938600E0934B
:100706008900E0938800E0938B00E0938A00E093F1
:10071600B600E093B000E093B100E093B200E0933E
:10072600B300E093B400E1E0E0936E00E0936F0065
:10073600E0E0E0937000E0936900EDBBE1E0E09358
:100746006800E8E3E0936B00E1E0EBBBE0E0E093F8
:10075600C000E8E0E093C100E6E0E093C200E0E01C
:10076600E093C500E3E3E093C400E0E8E0BFE0E027
:10077600E0937B00E0937F00E0937A00ECBDE0938A
:10078600BC00A9DE7894E4E1E0930303E2E3E0939E
:100796000403EAE5E0930503DFDDE7EAF0E0FA9318
:1007A600EA9380E07ED12296F09B2EC008E210E00C
:1007B60020910603309107031A930A933A932A93DA
:1007C600AEE0B3E0F5DCAF014536E0E05E0714F0DD
:1007D60044E650E0552312F440E050E0E0EBF0E050
:1007E600FA93EA93F8010E94D305E4ECF0E0FA9359
:1007F600EA93F9010E94D305EAEDF0E0FA93EA9351
:10080600FA010E94D305F098CFCFFFCFAA93E091CB
:10081600C000E072E1F3E881E093C60021960895F6
:10082600BA93AA93AA81F2DFA881B981ED91FD91CD
:100836003196FE93EE9323960895BA93AA9326973C
:100846000E94CD0710E0AC85BD85E0E0F0E0ED93B9
:10085600FC93EA89FB893196EA8BFB8B3197E4910D
:100866002E2FE03009F415C1E12FE03039F425329E
:1008760011F411E002C00E94E3050AC1E130A9F4B7
:10088600253219F40E94E30502C112E040E000E0BF
:100896002D3211F401E0FCC02B3211F44BE2F8C00A
:1008A600203211F440E2F4C002C0E23039F450E0E4
:1008B60013E0203311F40068EBC003C0E33009F005
:1008C600E7C0203310F02A3308F007C0AAE05A9F89
:1008D600502DE22FE0535E0FDBC0E22FE33649F4E2
:1008E6000E94EA05E889F989A481AA930E94F00585
:1008F600CEC0E33741F40E94EA050E94F6050E9445
:1009060079051E2F0AC0E03761F40E94EA050E94AD
:10091600F6050E9485051E2F086002600F7730E0FD
:1009260034C0E43611F0E93611F4046002C0E5374C
:1009360031F4E8E6F0E0EE83FF8315E00CC0E8351D
:1009460011F4086003C0E83709F0A1C0E2E7F0E05F
:10095600EE83FF8314E002FF14C00E94EA050E94A2
:100966000006AB85AA233AF4EA85FB850E94F806C1
:10097600EA87FB874DE2403011F01F5F01C00B7F15
:1009860004C00E94EA050E94000600FD11C015176A
:1009960078F407FF08C002FF04C00B7F242F115014
:1009A60001C020E301C020E20E94E3055150EFCFD1
:1009B600312F01FF17C03030A1F003FF06C0EE81D2
:1009C600FF812591EE83FF8305C0AE81BF812D9106
:1009D600AE83BF830E94E305503009F05150315079
:1009E600EACF4BC020E3EE81FF810E94BA07E88779
:1009F600F987EE81FF813296EE83FF83E885F985DC
:100A0600AA85BB85AE17BF0750F02F5FA885B985AD
:100A1600EA85FB85EA1BFB0BEA87FB87EFCF2A33C8
:100A260028F003FF02C0295F01C0295D04FD1AC03A
:100A3600213320F4A885B985119709F409C0531705
:100A460010F000FF01C013C020E207FF0BC020E337
:100A5600006102FF07C00B7F4A930E94F0055030E9
:100A660009F051500E94E305503009F051503150C1
:100A7600A885B985129708F0B5CF00FF08C0503099
:100A860031F05150E0E2EA930E94F005F8CF10E011
:100A9600E0CEAC85BD850E94AB070E94D407649664
:100AA6000895FF92F82E26971A930A93DE0114965C
:100AB6000E94EA068D01E0E0EC83ED83EE83EF838E
:100AC600DE0118960E94EA060E94AB07FA93EA93A3
:100AD6001A930A93E3E1F4E0FA93EA93DE01189697
:100AE600ACDE198108812896FF900895BA93AA93DF
:100AF600A991B991EE27FF276D91662311F03196E2
:100B0600FBCF0895BA93AA93AA27BB27E991F99137
:100B16000590002011F01196FBCFFD010895AA89DA
:100B2600BB891E960E94AF070895EE87FF87688BE4
:100B3600798BF5CFAA89BB8912960E94B5070895CD
:100B4600569A579A209A219A5E985F9828982998DB
:100B56000895E12FA1E00E9404070E2B08950E943C
:100B6600C501ACEC0C94F6010E942202EB830B81CA
:100B76001127102F0027EA81F0E00E2B1F2BF8011A
:100B86000E940C070E946E06A0E0B0E080E89DE39C
:100B96000E949C0608950E943706ED93FC93DFCFD2
:100BA6000E940C070E94BE0784E00E945405269608
:100BB6000895EBE0E0938500ECEDE0938400089562
:100BC6002A93AD85BE85EF85F88909950895E8894C
:100BD600F9893497E88BF98B0895AD85BE85EF8545
:100BE600F88909950895A889B98914960E94AB07D2
:100BF600EE83FF83AE81BF810895A889B9891496D3
:100C06000E94AB07EA87FB870895552342F45038C4
:100C160011F4E0FF04C03196691F791F6BF050E8AC
:100C2600572711F45F9373C05F3F31F0660F000CD6
:100C360057956795752F08955F9300200AF073C046
:100C46006CC050E8192E1522880F991F9527550F4D
:100C5600879550E8072E0522660F771F7527550FD3
:100C660067950895689401C0E8945F93F2DF703841
:100C760018F07F3F08F44BC056E1571BAAF4519574
:100C860058300EF4593030F0EFEFFFEF6FEF7FE79B
:100C960077F91AC077275523B9F0EE0FFF1F661FA5
:100CA600771F5A95D1F710C07727583028F0EF2FC5
:100CB600F62F672F5850F9CF552331F07695679563
:100CC600F795E7955A95D1F700200AF492D05F91EF
:100CD6000895689401C0E894309760407040B1F080
:100CE600002426F0772312F4009483D0172E7EE199
:100CF600112032F07A95EE0FFF1F661F111CF9CFF7
:100D0600EF2FF62F612D5F938ADF5F910895EE270F
:100D1600FF27662777275F910895EFEFFFEF6FE7CD
:100D26007FEF5F910895EFEFFFEF6FE77FE75F914A
:100D360008955F9386DF703851F3903841F30124AC
:100D46000894791F23F41CF300203AF3ECCF0F929A
:100D56001F932F933F934F93112722279927689F1D
:100D6600A0018F9F302D410D591F6B9F300D411DE6
:100D7600591F8E9F27D0BF9F25D06A9F23D0BE9F25
:100D86001DD0AF9F1BD0AE9F110D291F391F491FC4
:100D9600591FE32FF42F652F522F4F913F912F911B
:100DA6001F910F9066232AF0550FEE1FFF1F661F37
:100DB60002C073954BF229DF5F910895100D211D36
:100DC600391F02C0200D311D491F591F08950024E7
:100DD600AF0DB01D0895EA0FFB1F681F791F089518
:100DE600AE0FBF1F861F971F0895F195E195F0403E
:100DF6000895F09560957095E195FF4F6F4F7F4F81
:100E06000895EE230E2EEA2F19F0EE0F0A94E9F755
:100E160008956F2F660F660B762F08958B2F880F18
:100E2600880B982F0895FA9FF02DEB9FF00DEA9FFF
:100E3600E02DF10D08957A9F702D6B9F700DF89F30
:100E4600700DE99F700D6A9F602D710DFB9F600DFF
:100E5600711DE89F600D711D8827FA9FF02D610DA9
:100E6600781FEB9FF00D611D781FEA9FE02DF10DB5
:100E7600681F781F08954BD0D6DF0EF4B6DF0895AD
:100E860054D0D9DF0EF4B5DF08950024112490E183
:100E9600AA0FBB1F001C111C0E1A1F0A18F40E0EF7
:100EA6001F1E01C0A1609A9599F7FD01D001089512
:100EB6002ED0EBDF0EF499DF08953F934F935F93A7
:100EC600002411244427552730E2AA0FBB1F881F90
:100ED600991F001C111C441F551F0E1A1F0A460B92
:100EE600570B28F40E0E1F1E461F571F01C0A16088
:100EF6003A9559F7FD01BC01D001CA015F914F91A6
:100F06003F91089512D0D9DF0EF473DF0895E89467
:100F1600F7FF02C06ADF6894B7FF06C0A095B095D8
:100F2600119600F8039400FA0895E89477FF02C03A
:100F360060DF689497FF0BC00024A095B09580955C
:100F460090951196801D901D00F8039400FA08955F
:100F5600ED91FC9111970895ED91FD916D917C9124
:100F660013970895ED93FD936D937C9308950590E3
:100F7600F491E02D08957A936A93FA93EA9308958B
:100F8600EA17FB07680779070895AE17BF078607B4
:100F9600970708955A934A933A932A931A930A9372
:100FA60008955D814C813B812A81198108810895CC
:00000001FF
