:060000003BC0FECFFDCF66
:10000600FCCFC7C1FACFF9CFF8CF77C117C1F5CF6B
:10001600F4CFF3CFF2CFF1CFF0CFEFCFEECFEDCFDE
:100026001027E80364000A00010000100001100018
:10003600010000007374617274200A0D006572720B
:100046003D256920200074313D2569202000743249
:100056003D2569202000706F7765725F746F5F744D
:10006600656E3D2569200A0D00000100020038007A
:100076000000F894EE27ECBBF1E0FBBFEBBFE5BF59
:100086008DE0A2E0BB27ED938A95E9F780E094E046
:10009600A0E6ED930197E9F7E0E7F0E08591959109
:1000A600009761F0A591B59105901590BF01F001FB
:1000B60005900D920197E1F7FB01F0CFEFE5EDBF5B
:1000C600E4E0EEBFC0E6D1E069C140D500E010E053
:1000D6009AD38AEC93E00197F1F78E988F988DEA80
:1000E6008A95F1F7E0E0969BE1E0F0E00E0F1F1F26
:1000F600E0E0979BE1E0F0E00E0F1F1F88E493E03D
:100106000197F1F7F80154C0AA931A9310E010E092
:100116001830D8F4E981E17051F075D388E28A95F8
:10012600F1F7969A979A85E88A95F1F704C06BD30A
:100136008DEA8A95F1F78E988F988DE08A95F1F77A
:10014600E981E695E9831F5FE3CF188120C1FED4DC
:1001560010E000E0E0E0E0936A01E0936B0110E05C
:10016600183010F550D383E08A95F1F78E988F9862
:1001760085E28A95F1F7869B08C0E12FA1E0C8D4F5
:10018600A0916A01EA2BE0936A01879B08C0E12FE0
:10019600A1E0BED4A0916B01EA2BE0936B0188E746
:1001A6008A95F1F71F5FDCCF8DE08A95F1F7E02F96
:1001B6000991199108952CD3A4E408C029D3AEE47B
:1001C600A3DFA2E3A1DFA0E09FDFAFE19DDF0895FB
:1001D60022971ED3AEEB98DFBADFE0916A01E8837F
:1001E600E0916B01E983B3DFB0916A01A0E0E88199
:1001F600F0E0EA2BFB2BE0936601F0936701B091E8
:100206006B01A0E0E981F0E0EA2BFB2BE0936801AB
:10021600F0936901BCC0EEECFFEFFDD2849903C0F8
:10022600E0E2F1E0F8D2839903C0E0E6F1E0F3D230
:10023600859903C0E0E8F1E0EED20895FA92AA9318
:10024600EA93EFB7EA93FF24ECE9E2BFB59B03C05C
:10025600E0E0E0936001B49B03C0E0E0E09361015D
:10026600B39B03C0E0E0E0936201A0916001A93670
:1002760028F4E0916001EF5FE0936001A0916101D5
:10028600A93628F4E0916101EF5FE0936101A09146
:100296006201A93628F4E0916201EF5FE093620102
:1002A600E0916301A0916001EA1711F46894F0F8F7
:1002B600E0916401A0916101EA1711F46894F1F8E4
:1002C600E0916501A0916201EA1711F46894F2F8D1
:1002D600F0FC02C0AA9801C0AA9AF1FC02C0A99833
:1002E60001C0A99AF2FC02C0A89801C0A89AE99197
:1002F600EFBFE991A991F99018950A921A92FA928C
:100306006A937A938A939A93AA93BA93EA93FA93FF
:10031600EFB7EA9385D2F8945BDF4DDF7CDF689414
:1003260020F8E0E0E0936001E0936101E093620170
:100336007894E991EFBFF991E991B991A9919991D1
:10034600899179916991F9901990099018956CD2D3
:100356000CF072D276D214F078D201C0EEE6E093B9
:10036600630115C061D20CF067D26BD214F06DD266
:1003760001C0EEE6E09364010AC056D20CF05CD2EE
:1003860060D214F062D201C0EEE6E09365012296D7
:100396000895EA93E6E0E4BDE991189500E010E0DF
:1003A60020E030E0E1E0E7BBE0E0E8BBE7E0E4BB0B
:1003B600E0E0E5BBE1BBE2BBE2E0E3BFE0E0E2BFD9
:1003C600EFBDE3E0EEBD2CD2E0E0E7BDE6BDEBBD60
:1003D600EABDE9BDE8BDE2BDE5BDE4BDE3BDE5E0DE
:1003E600E9BFE0E0E5BFEBB9E8E0EAB9E6E8E0BD81
:1003F600E0E0E0BDE3E3E9B9E0E8E8B9E0E0E0BF6A
:10040600E6B9EDB9E6BFDADEA0E0B0E0A0DFA0E035
:10041600B0E0A8DFA0E0B0E0B0DF7894EAE3F0E077
:1004260018D280E0BBD1229620FE90C015D2A091B2
:100436006E01B0916F01EA17FB071CF412D216D2B7
:1004460009F41AC017D2A03BE4E0BE071CF412D28E
:100456000DD209F40FC00ED2A032E3E0BE071CF4A1
:10046600E1E0F0E002C0E2E0F0E0E0937001F0933A
:10047600710101C004D201C002D208D2119729F439
:100486000AD2A436E0E0BE070CF003C0A2E7B1E052
:1004960007D2FCD1129719F4FED112970CF40FC0B3
:1004A60005D27497E0937201F0937301A0917301E2
:1004B600AA232AF4E0E0E0937201E0937301EBD102
:1004C60046DFE9D14FDFE7D158DFD4D1A13BE4E0E5
:1004D600BE071CF4CFD1CAD119F4ACE6B1E0E0D125
:1004E600C0D1A13BE4E0BE071CF4BBD1BFD119F4D7
:1004F600ACE6B1E0D5D1A0916C01B0916D01A53605
:10050600E0E0BE070CF0C09AE3E4F0E0A2D1E0918F
:100516006C01F0916D01CFD1E0916601F091670118
:10052600D0D18F0199D1CDD19F01ECE4F0E091D1EA
:10053600F801C1D1E4E5F0E08CD1F901BCD1ECE5DC
:10054600F0E087D1B3D1B7D1E89420F86DCFFFCFD3
:10055600AA935D9BFECFE881ECB921960895BAD1A6
:10056600AA81F6DFA881B9819BD123960895B2D1DD
:100576002697E8D210E0AC85BD85E0E0F0E0ED938B
:10058600FC93EA89FB893196EA8BFB8B3197E491E0
:100596002E2FE03009F4FCC0E12FE03031F4253293
:1005A60011F411E001C099D1F2C0E130A1F4253275
:1005B60011F493D1EBC012E040E000E02D3211F4CB
:1005C60001E0E5C02B3211F44BE2E1C0203211F418
:1005D60040E2DDC002C0E23039F450E013E02033DF
:1005E60011F40068D4C003C0E33009F0D0C0203352
:1005F60010F02A3308F007C0AAE05A9F502DE22FC8
:10060600E0535E0FC4C0E22FE33639F46DD16FD1EB
:100616006BD1A481AA936FD1B9C0E33729F471D104
:1006260072D1DAD01E2F07C0E03749F46AD16BD1F8
:10063600DED01E2F086002600F7730E02DC0E43652
:1006460011F0E93611F4046002C0E53729F4E6E258
:10065600F0E062D115E00BC0E83511F4086003C084
:10066600E83709F093C0E0E3F0E056D114E002FF6A
:1006760011C047D154D1AB85AA2332F4EA85FB8554
:100686003BD2EA87FB874DE2403011F01F5F01C085
:100696000B7F02C036D143D100FD10C0151770F490
:1006A60007FF08C002FF04C00B7F242F115001C0B2
:1006B60020E301C020E211D15150F0CF312F01FFCC
:1006C60015C0303091F003FF05C0EE81FF81259102
:1006D60023D105C0AE81BF812D91AE83BF83FDD0EE
:1006E600503009F051503150ECCF47C020E3EE8135
:1006F600FF811FD2E887F987EE81FF8132960CD100
:10070600E885F985AA85BB85AE17BF0750F02F5F30
:10071600A885B985EA85FB85EA1BFB0BEA87FB877B
:10072600EFCF2A3328F003FF02C0295F01C0295DFD
:1007360004FD19C0213320F4A885B985119709F461
:1007460009C0531710F000FF01C011C020E207FFD7
:100756000AC020E3006102FF06C00B7F4A93CBD09C
:10076600503009F05150B9D0503009F05150315045
:10077600A885B985129708F0B9CF00FF07C0503099
:1007860029F05150E0E2EA93B6D0F9CF10E0F9CE65
:10079600AC85BD85CAD1DDD164960895FF92F82E49
:1007A6002697D4D1DE011496A3D18D01E0E0EC8327
:1007B600ED83EE83EF83DE0118969AD1B6D149D048
:1007C6001A930A93E2EBF2E044D0DE011896CFDEEC
:1007D600C4D12896FF9008957DD0A991B991EE27AE
:1007E600FF276D91662311F03196FBCF089572D0E5
:1007F600AA27BB27E991F9910590002011F01196DF
:10080600FBCFFD0108958E9A8F9A96989798089532
:100816005CDCACEC79CCE0936E01F0936F0108954B
:10082600E0E0EDBDECBD0895BA93AA93A881B98125
:10083600A436E0E0BE070895E3E6F0E0E883F98336
:100846000895A881B98116970895A881E4E6EA1B60
:100856000895FA93EA930895E0916801F091690189
:100866000895A0916801B09169010895AF3FEFEF37
:10087600BE070895A0916601B09167010895E2E070
:10088600F0E0E0937001F09371010895A09170017A
:10089600B09171010895A0917201B091730108950C
:1008A600ED91FD913196FE93EE930895E0917201DC
:1008B600F0917301089534D140D184E06FDF26961C
:1008C60008952ED199D0A0E0B0E080E89DE3C2D093
:1008D6005CD00895BA93AA9308952A93AD85BE85F0
:1008E600EF85F88909950895E889F9890895349777
:1008F600E88BF98B0895AD85BE85EF85F889099556
:100906000895F2DFF4CFA889B98914960ED1EE8343
:10091600FF83AE81BF810895EE83FF830895A88982
:10092600B989149602D1EA87FB870895552342F4C4
:10093600503811F4E0FF04C03196691F791F6BF03F
:1009460050E8572711F45F9373C05F3F31F0660F8D
:10095600000C57956795752F08955F9300200AF050
:1009660073C06CC050E8192E1522880F991F952761
:10097600550F879550E8072E0522660F771F7527B6
:10098600550F67950895689401C0E8945F93F2DF68
:10099600703818F07F3F08F44BC056E1571BAAF495
:1009A600519558300EF4593030F0EFEFFFEF6FEFFE
:1009B6007FE777F91AC077275523B9F0EE0FFF1FA7
:1009C600661F771F5A95D1F710C07727583028F041
:1009D600EF2FF62F672F5850F9CF552331F0769524
:1009E6006795F795E7955A95D1F700200AF488D0D0
:1009F6005F910895689401C0E89430976040704014
:100A0600B1F0002426F0772312F4009479D0172E43
:100A16007EE1112032F07A95EE0FFF1F661F111C42
:100A2600F9CFEF2FF62F612D5F938ADF5F9108953F
:100A3600EE27FF27662777275F910895EFEFFFEFF1
:100A46006FE77FEF5F910895EFEFFFEF6FE77FE7C7
:100A56005F9108955F9386DF703851F3903841F3C4
:100A660001240894791F23F41CF300203AF3ECCFF9
:100A76000F921F932F933F934F9311272227992766
:100A8600689FA0018F9F302D410D591F6B9F300D20
:100A9600411D591F8E9F27D0BF9F25D06A9F23D007
:100AA600BE9F1DD0AF9F1BD0AE9F110D291F391FB2
:100AB600491F591FE32FF42F652F522F4F913F9156
:100AC6002F911F910F9066232AF0550FEE1FFF1FDF
:100AD600661F02C073954BF229DF5F910895100DD2
:100AE600211D391F02C0200D311D491F591F0895B0
:100AF6000024AF0DB01D0895F195E195F0400895DD
:100B0600F09560957095E195FF4F6F4F7F4F089573
:100B1600EE230E2EEA2F19F0EE0F0A94E9F7089548
:100B26006F2F660F660B762F0895ED91FC91119746
:100B360008950590F491E02D08957A936A93FA93B7
:100B4600EA9308955A934A933A932A931A930A93E7
:100B560008955D814C813B812A8119810881089520
:00000001FF
