:0C0000000C944A000C9400000C940000CA
:10000C000C9488020C9400000C9400000C940000DA
:10001C000C9400000C9400000C9400000C94000054
:10002C000C9400000C9400000C94EA020C94000058
:10003C000C9400000C949A020C9400000C94000098
:10004C000C9400000C9400000C9400000C94000024
:10005C000C9400000C9400000C9400001027E80392
:10006C0064000A000100001000011000010073740C
:10007C00617274200A0D006D563D25692020006FB9
:10008C00563D2569200A0D00F894EE27EFBBF1E0F0
:10009C00F5BFE5BF8DE0A2E0BB27ED938A95E9F7AC
:1000AC0080E098E0A0E0B1E0ED930197E9F7E0E0A3
:1000BC00EEBBEFEFEDBFE8E0EEBFC0E0D3E00C9499
:1000CC0053030E94850512960E948A050E94B80669
:1000DC00A881B981E0E0F0E0ED93FC93EE81FF8123
:1000EC00A881B9811696ED93FC93EC81FD81A881D2
:1000FC00B9811896ED93FC93EA81FB81A881B981B3
:10010C001A96ED93FC93A881B98116960E94AE06BF
:10011C003196AFEFBFE70E945E06A881B9811C96AD
:10012C00ED93FC93A881B98118960E94AE06319686
:10013C000E940F06AFEFBFEF8FEF9FE30E94880680
:10014C00A881B9811E960E94B80628960895BA9384
:10015C00AA932C970E94D006AC89BD89EE89FF89A1
:10016C00EA1BFB0B8F01AA89BB891C960E94AE0669
:10017C00E017F1071CF42FEF3FE715C0AA89BB89E4
:10018C001C960E94AE060E94FB050E171F071CF45E
:10019C0021E030E808C0EA89FB89A681B781F80123
:1001AC000E9441069F01EA89FB89A281B381848167
:1001BC009581F8010E940F060E94F105EE83FF83E2
:1001CC00688779870E948F05AE81BF818885998564
:1001DC000E94C6064CF4EFEFFFEF6FEF7FE30E9437
:1001EC0095050E949A052EC00E948F050E94FF055E
:1001FC00AE81BF81888599850E94CB065CF4E1E0D5
:10020C00F0E060E070EC0E9495050E94FF050E94F2
:10021C009A0518C0EE81FF81688579850E949A0540
:10022C00EA89FB8900841184AA89BB8912960E94F1
:10023C00B206D0010E9414060E944606EE87FF8784
:10024C00688B798BEA89FB8902841384AA89BB8920
:10025C000E94AE06AC89BD89EA1BFB0BD0010E9443
:10026C004106AF01EC89FD89AA89BB89ED93FC930A
:10027C00EE85FF8568897989D9010E9414060E9450
:10028C00F605FA010E940F060E94F605E0E8F0E080
:10029C0060E070E00E948806EA87FB876C877D87A8
:1002AC00AA85BB858C859D85A030E0E8BE07E0E083
:1002BC008E07E0E09E072CF0EFEFFFE760E070E0C8
:1002CC0010C0AA85BB858C859D85A130E0E8BE0752
:1002DC00EFEF8E07EFEF9E0744F4E1E0F0E86FEFED
:1002EC007FEFEA87FB876C877D87EA85FB850E9419
:1002FC00D70668960895E9E1F0E060E070E0FA93C3
:10030C00EA930E948A05FA93EA930E948A05FA936B
:10031C00EA93A4E1B3E0D5DE08951A930A9300E0C2
:10032C0010E00E94A0058AEC93E00197F1F7569833
:10033C005798209821988DEA8A95F1F7E0E05E9B1A
:10034C00E1E0F0E00E0F1F1FE0E05F9BE1E0F0E06A
:10035C000E0F1F1FE0E0289BE1E0F0E00E0F1F1FC7
:10036C00E0E0299BE1E0F0E00E0F1F1F88E493E032
:10037C000197F1F7F80172C0AA931A9310E010E0FC
:10038C00183008F5E981E17069F00E94A00588E257
:10039C008A95F1F75E9A5F9A289A299A85E88A9548
:1003AC00F1F705C00E94A0058DEA8A95F1F75698E1
:1003BC005798209821988DE08A95F1F7E981E69578
:1003CC00E9831F5FDDCF188166C11A930A9310E091
:1003DC0000E0E0E0E0930E03E0930F03E0931003E2
:1003EC00E093110310E01830A8F50E94A00583E0FB
:1003FC008A95F1F7569857982098219885E28A9516
:10040C00F1F74E9B07C00E94A905A0910E03EA2BA1
:10041C00E0930E034F9B07C00E94A905A0910F0308
:10042C00EA2BE0930F03189B07C00E94A905A0912B
:10043C001003EA2BE0931003199B07C00E94A90537
:10044C00A0911103EA2BE093110388E78A95F1F749
:10045C001F5FC9CF8DE08A95F1F7E02F09911991B3
:10046C0008950E94AE05A4E409C00E94AE05AEE456
:10047C0083DFA2E381DFA0E07FDFAFE17DDF0895C2
:10048C0024970E94AE05AEEB77DF9FDFE0910E0361
:10049C00E883E0910F03E983E0911003EA83E09194
:1004AC001103EB8392DFB0910E03A0E0E881F0E042
:1004BC00EA2BFB2BE0930603F0930703B0910F0399
:1004CC00A0E0E981F0E0EA2BFB2BE0930803F0932A
:1004DC000903B0911003A0E0EA81F0E0EA2BFB2BBA
:1004EC00E0930A03F0930B03B0911103A0E0EB81AE
:1004FC00F0E0EA2BFB2BE0930C03F0930D03F09A46
:10050C0024960895EA931D9B03C0E0E0E09300035A
:10051C001C9B03C0E0E0E09301031B9B03C0E0E0E5
:10052C00E0930203E9911895FA92AA93EA93EFB734
:10053C00EA93FF24ECE9E6BDA0910003A93628F468
:10054C00E0910003EF5FE0930003A0910103A93653
:10055C0028F4E0910103EF5FE0930103A091020303
:10056C00A93628F4E0910203EF5FE0930203E091D7
:10057C000303A0910003EA1711F46894F0F8E091DA
:10058C000403A0910103EA1711F46894F1F8E091C7
:10059C000503A0910203EA1711F46894F2F8F0FC39
:1005AC0002C0429801C0429AF1FC02C0419801C0BD
:1005BC00419AF2FC02C0409801C0409AE991EFBF09
:1005CC00E991A991F99018950A921A92FA926A9364
:1005DC007A938A939A93AA93BA93EA93FA93EFB77E
:1005EC00EA93EFECE0938500ECE2E0938400F8945E
:1005FC0047DF37DF7894E0E0E0930003E0930103FA
:10060C00E0930203E991EFBFF991E991B991A991B6
:10061C009991899179916991F9901990099018950E
:10062C000E948505A436E0E0BE0714F00E94B305D5
:10063C00A881B981169724F0A881E4E6EA1B01C0D1
:10064C00EEE6E093030327C00E948505A436E0E0A4
:10065C00BE0714F00E94B305A881B981169724F047
:10066C00A881E4E6EA1B01C0EEE6E093040313C0A4
:10067C000E948505A436E0E0BE0714F00E94B30585
:10068C00A881B981169724F0A881E4E6EA1B01C081
:10069C00EEE6E093050322960895E0E8E09361000E
:1006AC00E0E0E0936100E4B9E5B9E7E0E7B9E0E048
:1006BC00E8B9EAB9EBB9E4BDE2E0E5BDECE9E6BDC9
:1006CC00E0E0E7BDE8BDE0938000E3E0E09381006B
:1006DC00EBE0E0938500ECEDE0938400E0E0E09348
:1006EC008700E0938600E0938900E0938800E09314
:1006FC008B00E0938A00E093B600E093B000E093A7
:10070C00B100E093B200E093B300E093B400E1E0F9
:10071C00E0936E00E0936F00E0E0E0937000E093F4
:10072C006900EDBBE1E0E0936800E8E3E0936B0067
:10073C00E1E0EBBBE0E0E093C000E8E0E093C10057
:10074C00E6E0E093C200E0E0E093C500E3E3E09371
:10075C00C400E0E8E0BFE0E0E0937B00E0937F00C2
:10076C00E0937A00ECBDE093BC007FDEA0E0B0E04B
:10077C0057DFA0E0B0E068DFA0E0B0E079DF78946C
:10078C00BADDEAE7F0E0FA93EA9380E07AD12296B8
:10079C00F09B2AC0A0910603B0910703A03BE4E0B4
:1007AC00BE075CF4E0E2F3E00E94B805FA93EA932A
:1007BC00A4E1B3E0CCDC8F0107C0A2E1B3E0ED9182
:1007CC00FD913196FE93EE93D8012ADFE3E8F0E039
:1007DC000E94B8050E94BF05EBE8F0E0FA93EA939B
:1007EC00F8010E94BF05F098D3CFFFCFAA93E091F8
:1007FC00C000E072E1F3E881E093C6002196089511
:10080C00BA93AA93AA81F2DFA881B981ED91FD91E7
:10081C003196FE93EE9323960895BA93AA93269756
:10082C000E94D00610E0AC85BD85E0E0F0E0ED93D1
:10083C00FC93EA89FB893196EA8BFB8B3197E49127
:10084C002E2FE03009F415C1E12FE03039F42532B8
:10085C0011F411E002C00E94C8050AC1E130A9F4EC
:10086C00253219F40E94C80502C112E040E000E0F4
:10087C002D3211F401E0FCC02B3211F44BE2F8C024
:10088C00203211F440E2F4C002C0E23039F450E0FE
:10089C0013E0203311F40068EBC003C0E33009F01F
:1008AC00E7C0203310F02A3308F007C0AAE05A9FA3
:1008BC00502DE22FE0535E0FDBC0E22FE33649F4FC
:1008CC000E94CF05E889F989A481AA930E94D505D5
:1008DC00CEC0E33741F40E94CF050E94DB050E9495
:1008EC006C051E2F0AC0E03761F40E94CF050E94F0
:1008FC00DB050E9478051E2F086002600F7730E040
:10090C0034C0E43611F0E93611F4046002C0E53766
:10091C0031F4E8E6F0E0EE83FF8315E00CC0E83537
:10092C0011F4086003C0E83709F0A1C0E2E7F0E079
:10093C00EE83FF8314E002FF14C00E94CF050E94D7
:10094C00E505AB85AA233AF4EA85FB850E94FB05F5
:10095C00EA87FB874DE2403011F01F5F01C00B7F2F
:10096C0004C00E94CF050E94E50500FD11C01517BB
:10097C0078F407FF08C002FF04C00B7F242F11502E
:10098C0001C020E301C020E20E94C8055150EFCF06
:10099C00312F01FF17C03030A1F003FF06C0EE81EC
:1009AC00FF812591EE83FF8305C0AE81BF812D9120
:1009BC00AE83BF830E94C805503009F051503150AE
:1009CC00EACF4BC020E3EE81FF810E94BD06E88791
:1009DC00F987EE81FF813296EE83FF83E885F985F6
:1009EC00AA85BB85AE17BF0750F02F5FA885B985C8
:1009FC00EA85FB85EA1BFB0BEA87FB87EFCF2A33E3
:100A0C0028F003FF02C0295F01C0295D04FD1AC054
:100A1C00213320F4A885B985119709F409C053171F
:100A2C0010F000FF01C013C020E207FF0BC020E351
:100A3C00006102FF07C00B7F4A930E94D50550301E
:100A4C0009F051500E94C805503009F051503150F6
:100A5C00A885B985129708F0B5CF00FF08C05030B3
:100A6C0031F05150E0E2EA930E94D505F8CF10E046
:100A7C00E0CEAC85BD850E94AE060E94D70664967A
:100A8C000895FF92F82E26971A930A93DE01149676
:100A9C000E94ED058D01E0E0EC83ED83EE83EF83A6
:100AAC00DE0118960E94ED050E94AE06FA93EA93B9
:100ABC001A930A93E6E0F4E0FA93EA93DE011896AF
:100ACC00ACDE198108812896FF900895BA93AA93F9
:100ADC00A991B991EE27FF276D91662311F03196FC
:100AEC00FBCF0895BA93AA93AA27BB27E991F99152
:100AFC000590002011F01196FBCFFD010895BA93DB
:100B0C00AA93A881B9810895E0E0F0E060E070E07C
:100B1C000895AA89BB891E960E94B2060895EE8795
:100B2C00FF87688B798BF5CFAA89BB8912960E94B7
:100B3C00B8060895569A579A209A219A5E985F980B
:100B4C00289829980895E12FA1E00E94070608959E
:100B5C000E949301ACEC0C94C201E3E6F0E0E88354
:100B6C00F9830895FA93EA93E0910603F091070351
:100B7C0008950E940F060E94C10684E00E9447055A
:100B8C00269608952A93AD85BE85EF85F88909953B
:100B9C000895E889F9893497E88BF98B0895AD8528
:100BAC00BE85EF85F88909950895A889B9891496A9
:100BBC000E94AE06EE83FF83AE81BF810895A889A3
:100BCC00B98914960E94AE06EA87FB870895002423
:100BDC00AF0DB01D0895EA0FFB1F681F791F089514
:100BEC00AE0FBF1F861F971F0895F195E195F0403A
:100BFC000895F09560957095E195FF4F6F4F7F4F7D
:100C0C000895EE230E2EEA2F19F0EE0F0A94E9F751
:100C1C0008956F2F660F660B762F08958B2F880F14
:100C2C00880B982F0895FA9FF02DEB9FF00DEA9FFB
:100C3C00E02DF10D08957A9F702D6B9F700DF89F2C
:100C4C00700DE99F700D6A9F602D710DFB9F600DFB
:100C5C00711DE89F600D711D8827FA9FF02D610DA5
:100C6C00781FEB9FF00D611D781FEA9FE02DF10DB1
:100C7C00681F781F08954BD0D6DF0EF4B6DF0895A9
:100C8C0054D0D9DF0EF4B5DF08950024112490E17F
:100C9C00AA0FBB1F001C111C0E1A1F0A18F40E0EF3
:100CAC001F1E01C0A1609A9599F7FD01D00108950E
:100CBC002ED0EBDF0EF499DF08953F934F935F93A3
:100CCC00002411244427552730E2AA0FBB1F881F8C
:100CDC00991F001C111C441F551F0E1A1F0A460B8E
:100CEC00570B28F40E0E1F1E461F571F01C0A16084
:100CFC003A9559F7FD01BC01D001CA015F914F91A2
:100D0C003F91089512D0D9DF0EF473DF0895E89463
:100D1C00F7FF02C06ADF6894B7FF06C0A095B095D4
:100D2C00119600F8039400FA0895E89477FF02C036
:100D3C0060DF689497FF0BC00024A095B095809558
:100D4C0090951196801D901D00F8039400FA08955B
:100D5C00ED91FC9111970895ED91FD916D917C9120
:100D6C0013970895ED93FD936D937C9308950590DF
:100D7C00F491E02D08957A936A93FA93EA93089587
:100D8C00EA17FB07680779070895AE17BF078607B0
:100D9C00970708955A934A933A932A931A930A936E
:100DAC0008955D814C813B812A81198108810895C8
:00000001FF
