:020000000C945E
:100002004F000C9400000C9400000C94A3020C947A
:1000120000000C9400000C9400000C9400000C945E
:1000220000000C9400000C9400000C9400000C944E
:1000320000000C9405030C9400000C9400000C9436
:10004200B5020C9400000C9400000C9400000C9477
:1000520000000C9400000C9400000C9400000C941E
:1000620000000C9400001027E80364000A0001005D
:1000720000100001100001007374617274200A0DF7
:10008200006572723D25692020006D563D2569206C
:1000920020006F563D2569200A0D0000F894EE27D6
:1000A200EFBBF1E0F5BFE5BF8DE0A2E0BB27ED932A
:1000B2008A95E9F780E098E0A0E0B1E0ED9301973E
:1000C200E9F7E0E0EEBBEFEFEDBFE8E0EEBFC0E046
:1000D200D3E00C9470030E94060612960E940B064F
:1000E2000E944B07A881B981E0E0F0E0ED93FC9318
:1000F200EE81FF81A881B9811696ED93FC93EC8184
:10010200FD81A881B9811896ED93FC93EA81FB8168
:10011200A881B9811A96ED93FC93A881B9811696AC
:100122000E9441073196AFEFBFE70E94F106A88116
:10013200B9811C96ED93FC93A881B98118960E940F
:10014200410731960E94A206AFEFBFEF8FEF9FE308
:100152000E941B07A881B9811E960E944B07289610
:100162000895BA93AA932C970E946307AC89BD891C
:10017200EE89FF89EA1BFB0B8F01AA89BB891C96BA
:100182000E944107E017F1071CF42FEF3FE715C06B
:10019200AA89BB891C960E9441070E948E060E17EF
:1001A2001F071CF421E030E808C0EA89FB89A68118
:1001B200B781F8010E94D4069F01EA89FB89A281D6
:1001C200B38184819581F8010E94A2060E9484066F
:1001D200EE83FF83688779870E941006AE81BF8114
:1001E200888599850E9459074CF4EFEFFFEF6FEF76
:1001F2007FE30E9416060E941B062EC00E94100674
:100202000E949206AE81BF81888599850E945E0711
:100212005CF4E1E0F0E060E070EC0E9416060E94FF
:1002220092060E941B0618C0EE81FF8168857985BF
:100232000E941B06EA89FB8900841184AA89BB8972
:1002420012960E944507D0010E94A7060E94D90675
:10025200EE87FF87688B798BEA89FB890284138496
:10026200AA89BB890E944107AC89BD89EA1BFB0BA5
:10027200D0010E94D406AF01EC89FD89AA89BB890D
:10028200ED93FC93EE85FF8568897989D9010E94F7
:10029200A7060E948906FA010E94A2060E94890608
:1002A200E0E8F0E060E070E00E941B07EA87FB876D
:1002B2006C877D87AA85BB858C859D85A030E0E80B
:1002C200BE07E0E08E07E0E09E072CF0EFEFFFE7CD
:1002D20060E070E010C0AA85BB858C859D85A13049
:1002E200E0E8BE07EFEF8E07EFEF9E0744F4E1E090
:1002F200F0E86FEF7FEFEA87FB876C877D87EA85FF
:10030200FB850E946A0768960895E9E1F0E060E0E3
:1003120070E0FA93EA930E940B06FA93EA930E9422
:100322000B06FA93EA93A6E1B3E0D5DE08951A9399
:100332000A9300E010E00E9421068AEC93E0019704
:10034200F1F756985798209821988DEA8A95F1F7F7
:10035200E0E05E9BE1E0F0E00E0F1F1FE0E05F9B3C
:10036200E1E0F0E00E0F1F1FE0E0289BE1E0F0E08B
:100372000E0F1F1FE0E0299BE1E0F0E00E0F1F1FB0
:1003820088E493E00197F1F7F80172C0AA931A93F7
:1003920010E010E0183008F5E981E17069F00E9480
:1003A200210688E28A95F1F75E9A5F9A289A299A3D
:1003B20085E88A95F1F705C00E9421068DEA8A95A3
:1003C200F1F756985798209821988DE08A95F1F781
:1003D200E981E695E9831F5FDDCF18817EC11A931B
:1003E2000A9310E000E0E0E0E0930E03E0930F03D5
:1003F200E0931003E093110310E01830A8F50E9477
:10040200210683E08A95F1F756985798209821980B
:1004120085E28A95F1F74E9B07C00E942A06A091B9
:100422000E03EA2BE0930E034F9B07C00E942A069D
:10043200A0910F03EA2BE0930F03189B07C00E94C1
:100442002A06A0911003EA2BE0931003199B07C020
:100452000E942A06A0911103EA2BE093110388E778
:100462008A95F1F71F5FC9CF8DE08A95F1F7E02FEA
:100472000991199108950E942F06A4E409C00E94CF
:100482002F06AEE483DFA2E381DFA0E07FDFAFE1EE
:100492007DDF089524970E942F06AEEB77DF9FDF62
:1004A200E0910E03E883E0910F03E983E0911003EA
:1004B200EA83E0911103EB8392DFB0910E03A0E097
:1004C200E881F0E0EA2BFB2BE0930603F0930703AD
:1004D200B0910F03A0E0E981F0E0EA2BFB2BE0935F
:1004E2000803F0930903B0911003A0E0EA81F0E061
:1004F200EA2BFB2BE0930A03F0930B03B091110359
:10050200A0E0EB81F0E0EA2BFB2BE0930C03F093ED
:100512000D0324960895EEECFFEF0E9434064C99E9
:1005220004C0E0E2F1E00E9434064B9904C0E0E628
:10053200F1E00E9434064D9904C0E0E8F1E00E9427
:1005420034060895EA931D9B03C0E0E0E0930003A4
:100552001C9B03C0E0E0E09301031B9B03C0E0E0AF
:10056200E0930203E9911895FA92AA93EA93EFB7FE
:10057200EA93FF24ECE9E6BDA0910003A93628F432
:10058200E0910003EF5FE0930003A0910103A9361D
:1005920028F4E0910103EF5FE0930103A0910203CD
:1005A200A93628F4E0910203EF5FE0930203E091A1
:1005B2000303A0910003EA1711F46894F0F8E091A4
:1005C2000403A0910103EA1711F46894F1F8E09191
:1005D2000503A0910203EA1711F46894F2F8F0FC03
:1005E20002C0429801C0429AF1FC02C0419801C087
:1005F200419AF2FC02C0409801C0409AE991EFBFD3
:10060200E991A991F99018950A921A92FA926A932D
:100612007A938A939A93AA93BA93EA93FA93EFB747
:10062200EA93EFECE0938500ECE2E0938400F89427
:1006320031DF21DF70DFF09AE0E0E0930003E09326
:100642000103E09302037894E991EFBFF991E991F4
:10065200B991A9919991899179916991F99019909A
:10066200099018950E940606A436E0E0BE0714F031
:100672000E943906A881B981169724F0A881E4E680
:10068200EA1B01C0EEE6E093030327C00E940606C0
:10069200A436E0E0BE0714F00E943906A881B981B1
:1006A200169724F0A881E4E6EA1B01C0EEE6E09387
:1006B200040313C00E940606A436E0E0BE0714F04D
:1006C2000E943906A881B981169724F0A881E4E630
:1006D200EA1B01C0EEE6E093050322960895E0E8E6
:1006E200E0936100E0E0E0936100E4B9E5B9E7E09E
:1006F200E7B9E0E0E8B9EAB9EBB9E4BDE2E0E5BDAB
:10070200ECE9E6BDE0E0E7BDE8BDE0938000E3E0B0
:10071200E0938100EBE0E0938500ECEDE093840050
:10072200E0E0E0938700E0938600E0938900E093A5
:100732008800E0938B00E0938A00E093B600E09398
:10074200B000E093B100E093B200E093B300E09315
:10075200B400E1E0E0936E00E0936F00E0E0E0932C
:100762007000E0936900EDBBE1E0E0936800E8E32C
:10077200E0936B00E1E0EBBBE0E0E093C000E8E077
:10078200E093C100E6E0E093C200E0E0E093C50040
:10079200E3E3E093C400E0E8E0BFE0E0E0937B0045
:1007A200E0937F00E0937A00ECBDE093BC0067DE4B
:1007B200A0E0B0E057DFA0E0B0E068DFA0E0B0E08A
:1007C20079DF7894A2DDEAE7F0E0FA93EA9380E039
:1007D200DED12296F09B8EC0E0910C03F0910D03C6
:1007E200A0911403B0911503EA17FB07DCF40E94F1
:1007F2003E06A03BE4E0BE0734F40E943E06AF3F53
:10080200EFEFBE0709F40BC0E0E2F3E00E944306FB
:10081200FA93EA93A6E1B3E0A4DC8F0102C000E000
:1008220010E006C000E010E020E030E040E050E0E0
:10083200D80118DFD9012ADFDA013CDF0E943E0627
:10084200A13BE4E0BE0734F40E943E06AF3FEFEF67
:10085200BE0711F40E944A06A0910803B091090351
:10086200A13BE4E0BE0744F4A0910803B091090360
:10087200AF3FEFEFBE0711F40E944A06A0910A03B0
:10088200B0910B03A13BE4E0BE0744F4A0910A033C
:10089200B0910B03AF3FEFEFBE0711F40E944A067F
:1008A200A0910C03B0910D03A13BE4E0BE0744F418
:1008B200A0910C03B0910D03AF3FEFEFBE0711F40F
:1008C2000E944A06E3E8F0E0FA93EA93E091120309
:1008D200F09113030E945206ECE8F0E00E944306F6
:1008E2000E945206E4E9F0E0FA93EA93F8010E94CA
:1008F2005206F0986FCFFFCFAA93E091C000E0724A
:10090200E1F3E881E093C60021960895BA93AA9391
:10091200AA81F2DFA881B981ED91FD913196FE9312
:10092200EE9323960895BA93AA9326970E9463079B
:1009320010E0AC85BD85E0E0F0E0ED93FC93EA8940
:10094200FB893196EA8BFB8B3197E4912E2FE030B5
:1009520009F415C1E12FE03039F4253211F411E028
:1009620002C00E945B060AC1E130A9F4253219F4E3
:100972000E945B0602C112E040E000E02D3211F459
:1009820001E0FCC02B3211F44BE2F8C0203211F42A
:1009920040E2F4C002C0E23039F450E013E0203308
:1009A20011F40068EBC003C0E33009F0E7C0203364
:1009B20010F02A3308F007C0AAE05A9F502DE22F08
:1009C200E0535E0FDBC0E22FE33649F40E94620679
:1009D200E889F989A481AA930E946806CEC0E33708
:1009E20041F40E9462060E946E060E94ED051E2FCF
:1009F2000AC0E03761F40E9462060E946E060E94FD
:100A0200F9051E2F086002600F7730E034C0E4362B
:100A120011F0E93611F4046002C0E53731F4E8E67A
:100A2200F0E0EE83FF8315E00CC0E83511F40860B6
:100A320003C0E83709F0A1C0E2E7F0E0EE83FF83EC
:100A420014E002FF14C00E9462060E947806AB8581
:100A5200AA233AF4EA85FB850E948E06EA87FB8781
:100A62004DE2403011F01F5F01C00B7F04C00E94B5
:100A720062060E94780600FD11C0151778F407FF80
:100A820008C002FF04C00B7F242F115001C020E3D5
:100A920001C020E20E945B065150EFCF312F01FFCF
:100AA20017C03030A1F003FF06C0EE81FF8125910F
:100AB200EE83FF8305C0AE81BF812D91AE83BF83DC
:100AC2000E945B06503009F051503150EACF4BC0C2
:100AD20020E3EE81FF810E945007E887F987EE81CB
:100AE200FF813296EE83FF83E885F985AA85BB856F
:100AF200AE17BF0750F02F5FA885B985EA85FB8541
:100B0200EA1BFB0BEA87FB87EFCF2A3328F003FFB0
:100B120002C0295F01C0295D04FD1AC0213320F4FF
:100B2200A885B985119709F409C0531710F000FF81
:100B320001C013C020E207FF0BC020E3006102FFE7
:100B420007C00B7F4A930E946806503009F051504B
:100B52000E945B06503009F051503150A885B9858A
:100B6200129708F0B5CF00FF08C0503031F0515055
:100B7200E0E2EA930E946806F8CF10E0E0CEAC858E
:100B8200BD850E9441070E946A0764960895FF92FC
:100B9200F82E26971A930A93DE0114960E94800675
:100BA2008D01E0E0EC83ED83EE83EF83DE011896A6
:100BB2000E9480060E944107FA93EA931A930A93CD
:100BC200E7E8F4E0FA93EA93DE011896ACDE1981C5
:100BD20008812896FF900895BA93AA93A991B99192
:100BE200EE27FF276D91662311F03196FBCF089512
:100BF200BA93AA93AA27BB27E991F99105900020FD
:100C020011F01196FBCFFD010895BA93AA93A88122
:100C1200B9810895E0E0F0E060E070E00895AA890B
:100C2200BB891E960E9445070895EE87FF87688B51
:100C3200798BF5CFAA89BB8912960E944B0708953A
:100C4200569A579A209A219A5E985F9828982998DE
:100C52000895E12FA1E00E949A0608950E9498014A
:100C6200ACEC0C94C701E0931403F09315030895C0
:100C7200E3E6F0E0E883F9830895A0910603B091DA
:100C820007030895FA93EA93E0910603F0910703AC
:100C92000895A2E1B3E0ED91FD913196FE93EE93BA
:100CA20008950E94A2060E94540784E00E94C8058B
:100CB200269608952A93AD85BE85EF85F889099514
:100CC2000895E889F9893497E88BF98B0895AD8501
:100CD200BE85EF85F88909950895A889B989149682
:100CE2000E944107EE83FF83AE81BF810895A889E8
:100CF200B98914960E944107EA87FB870895002468
:100D0200AF0DB01D0895EA0FFB1F681F791F0895EC
:100D1200AE0FBF1F861F971F0895F195E195F04012
:100D22000895F09560957095E195FF4F6F4F7F4F55
:100D32000895EE230E2EEA2F19F0EE0F0A94E9F72A
:100D420008956F2F660F660B762F08958B2F880FED
:100D5200880B982F0895FA9FF02DEB9FF00DEA9FD4
:100D6200E02DF10D08957A9F702D6B9F700DF89F05
:100D7200700DE99F700D6A9F602D710DFB9F600DD4
:100D8200711DE89F600D711D8827FA9FF02D610D7E
:100D9200781FEB9FF00D611D781FEA9FE02DF10D8A
:100DA200681F781F08954BD0D6DF0EF4B6DF089582
:100DB20054D0D9DF0EF4B5DF08950024112490E158
:100DC200AA0FBB1F001C111C0E1A1F0A18F40E0ECC
:100DD2001F1E01C0A1609A9599F7FD01D0010895E7
:100DE2002ED0EBDF0EF499DF08953F934F935F937C
:100DF200002411244427552730E2AA0FBB1F881F65
:100E0200991F001C111C441F551F0E1A1F0A460B66
:100E1200570B28F40E0E1F1E461F571F01C0A1605C
:100E22003A9559F7FD01BC01D001CA015F914F917A
:100E32003F91089512D0D9DF0EF473DF0895E8943C
:100E4200F7FF02C06ADF6894B7FF06C0A095B095AD
:100E5200119600F8039400FA0895E89477FF02C00F
:100E620060DF689497FF0BC00024A095B095809531
:100E720090951196801D901D00F8039400FA089534
:100E8200ED91FC9111970895ED91FD916D917C91F9
:100E920013970895ED93FD936D937C9308950590B8
:100EA200F491E02D08957A936A93FA93EA93089560
:100EB200EA17FB07680779070895AE17BF07860789
:100EC200970708955A934A933A932A931A930A9347
:100ED20008955D814C813B812A81198108810895A1
:00000001FF
